:020000040800F2
:1000000020090020D5010008D11E0008051E0008A7
:10001000CD1E00082307000861250008000000002D
:10002000000000000000000000000000CD1F0008DC
:100030009D07000800000000A31F0008CF1F000854
:10004000EF010008EF010008EF010008EF010008D0
:10005000EF010008EF010008EF010008EF010008C0
:10006000EF010008EF010008EF010008EF010008B0
:10007000EF010008EF010008EF0100086107000828
:10008000EF010008EF010008EF010008EF01000890
:10009000EF010008EF010008EF010008EF01000880
:1000A000EF010008EF010008EF010008EF01000870
:1000B000EF010008EF010008EF010008EF01000860
:1000C000EF010008EF010008EF010008EF01000850
:1000D000EF01000855230008EF010008EF010008B8
:1000E000EF010008EF010008EF010008EF01000830
:1000F000EF010008EF010008EF010008EF01000820
:10010000EF010008EF010008EF010008EF0100080F
:10011000EF010008EF010008EF010008EF010008FF
:10012000EF010008EF010008EF010008EF010008EF
:1001300000F002F800F03FF80AA090E8000C8244BA
:100140008344AAF10107DA4501D100F034F8AFF297
:10015000090EBAE80F0013F0010F18BFFB1A43F0A5
:10016000010318475C2700007C270000103A24BFD9
:1001700078C878C1FAD8520724BF30C830C144BF0C
:1001800004680C607047000000230024002500264E
:10019000103A28BF78C1FBD8520728BF30C148BFEA
:1001A0000B607047782900F06B80002070471FB506
:1001B0001FBD10B510BD00F055FA1146FFF7F7FF4F
:1001C00002F0C0FA00F073FA03B4FFF7F2FF03BCC9
:1001D00002F0EBF90948804709480047FEE7FEE7CF
:1001E000FEE7FEE7FEE7FEE7FEE7FEE7FEE7FEE7E7
:1001F00004480549054A064B70470000DB1F00080C
:1002000031010008200300202009002020050020E3
:1002100020050020704700000FB4044910B503AA60
:10022000029800F0BFF910BC5DF814FB0C00002030
:1002300070B5044685690068C10601D5302600E026
:100240002026C00707D070BDD4E901213046904771
:10025000206A401C20626D1EF6D570BD70B5044644
:1002600085690078C00707D170BDD4E9012120203D
:100270009047206A401C20626D1EF6D570BD0000BC
:1002800070B504460D4621461068AFF30080218802
:10029000090502D50F4A7A4402E00E4A7A440E322A
:1002A000002104F1240305E000F00F060009965D2B
:1002B0005E54491C0028F7D120780023000704D59C
:1002C000702D02D009B1022311322046BDE87040E2
:1002D00000F00EB9EA2500002DE9F05F89460446DA
:1002E0004FF0000ADFF824B1FB44C0F820A02046FC
:1002F000E168884700287DD0252806D0D4E901216F
:100300009047206A401C2062F1E700255F462046A6
:10031000E16888472028064607DB312E05D2B81948
:1003200010F8200C08B10543F1E7A80701D525F026
:100330000405C4F81CA00027C4F818A02A2E09D070
:10034000304602F02BF938B304EB8708303EC8F88A
:10035000186019E059F8041B204604EB87029161EC
:10036000E1688847012F064618D1E069002820DAA5
:1003700025F020051DE0D8F8180000EB800006EB02
:1003800040003038C8F818002046E1688847064623
:1003900002F004F90028EED1012F0AD02E2E08D148
:1003A0002046E16888477F1C0646022F45F020055D
:1003B000C4DBA069002803DA404245F00105A061D2
:1003C000E80701D025F01005A6B1A6F141001928D3
:1003D00002D8203645F400654A463146204625605D
:1003E0004D46FFF7DFFE60B1012807D0ED1D25F077
:1003F000070000E007E000F1080978E705F10409CB
:1004000075E730467AE7206ABDE8F09FC025000016
:10041000032A40F2308010F0030C00F0158011F830
:10042000013BBCF1020F624498BF11F801CB00F808
:10043000013B38BF11F8013BA2F1040298BF00F85C
:1004400001CB38BF00F8013B11F0030300F0BC8082
:10045000083AC0F0088051F8043B083A51F804CB40
:10046000A0E80810F5E7121D5CBF51F8043B40F806
:10047000043BAFF30080D20724BF11F8013B11F811
:1004800001CB48BF11F8012B24BF00F8013B00F855
:1004900001CB48BF00F8012B70474FF0000200B5B8
:1004A000134694469646203922BFA0E80C50A0E897
:1004B0000C50B1F12001BFF4F7AF090728BFA0E845
:1004C0000C5048BF0CC05DF804EB890028BF40F811
:1004D000042B08BF704748BF20F8022B11F0804F53
:1004E00018BF00F8012B704770477047704770477E
:1004F0002DE9F0470D4699469246044600F124083E
:100500000168880604D5E06921F01001216000E04F
:100510000120A84201DD471B00E00027A1697A19EC
:1005200002EB0900081AA0612078C00602D4204618
:10053000FFF77EFE002608E0D4E901211AF8060044
:100540009047206A401C761C20624E45F4DB2078E0
:10055000C0060AD52046FFF76BFE06E0D4E901216C
:1005600030209047206A401C2062381EA7F1010706
:10057000F4DC07E0D4E9012118F805009047206A6F
:10058000401C2062281EA5F10105F3DC2046FFF780
:1005900065FE2078000602D50220BDE8F087012024
:1005A000FBE70000074B70B50D467B4400F043F8B5
:1005B0000446284600F052F810B14FF0FF3070BDED
:1005C000204670BDA320000010B5203AC0F00B807B
:1005D000B1E81850203AA0E81850B1E81850A0E847
:1005E0001850BFF4F5AF5FEA027C24BFB1E81850A1
:1005F000A0E8185044BF18C918C0BDE810405FEA11
:10060000827C24BF51F8043B40F8043B08BF70478C
:10061000D20728BF31F8023B48BF11F8012B28BF91
:1006200020F8023B48BF00F8012B704701694A1CC3
:1006300002610878704700B58FB0CDE90131002123
:10064000059105497944CDE9031011466846FFF745
:1006500043FE0FB000BD0000E5FFFFFF007B00F090
:1006600080007047754600F02BF8AE4605006946DD
:10067000534620F00700854618B020B5FFF7B8FDB7
:10068000BDE820404FF000064FF000074FF0000893
:100690004FF0000B21F00701AC46ACE8C009ACE814
:1006A000C009ACE8C009ACE8C0098D46704710B578
:1006B0000446AFF300802046BDE81040FFF784BD3C
:1006C00000487047BC0200202DE9F04706468946E5
:1006D00015461C465A202070A5206070A670300A6E
:1006E000E07005F10A0087B22771380A60712A4666
:1006F0004946A01DFFF78CFEA81D81B2204600F0E0
:1007000012F88046A81D04F800804FEA1821E81D61
:1007100021546921401C2154401C21543846BDE815
:10072000F08700BFFEE730B502460B464FF6FF707C
:10073000002112E0545C604000240AE000F0010552
:1007400025B140104AF20105684000E04010651CE8
:10075000ECB2082CF2DB4C1CA1B29942EADB30BDB2
:1007600010B5024800F01AF910BD00007802002010
:1007700030B590F840500124AC40C56B6C60046803
:1007800063604468102C04D10468A2600468E160CE
:1007900003E00468A1600468E26030BD7047014670
:1007A000002291F82100022808D00420886300BFAD
:1007B000002081F8200000BF012070470868006811
:1007C00020F00E000B6818600868006820F0010037
:1007D0000B68186091F8403001209840CB6B58604E
:1007E000012081F8210000BF002081F8200000BF17
:1007F0001046E2E770B50446002594F8210002286F
:1008000003D00420A0630125C1E02068006820F027
:100810000E00216808602068006820F0010021684F
:1008200008605C492068884252D95A497839206862
:10083000884201D1012047E0564964392068884246
:1008400001D1102040E0534950392068884201D13D
:10085000801539E04F493C392068884201D1801425
:1008600032E04C4928392068884202D14FF4803068
:100870002AE0484914392068884202D14FF4801098
:1008800022E044492068884201D140041CE04249EA
:100890002068884201D1012016E03F4914312068C8
:1008A000884201D110200FE03B492831206888425E
:1008B00001D1801508E038493C312068884201D1D7
:1008C000801401E04FF480303349091F086051E083
:1008D000304978392068884201D1012047E02D490C
:1008E00064392068884201D1102040E029495039FC
:1008F0002068884201D1801539E026493C392068BA
:10090000884201D1801432E0224928392068884287
:1009100002D14FF480302AE01E4914392068884201
:1009200002D14FF4801022E01A492068884201D198
:1009300040041CE018492068884201D1012016E0DB
:10094000154914312068884201D110200FE0124966
:1009500028312068884201D1801508E00E493C31D9
:100960002068884201D1801401E04FF480300949A9
:1009700080394860012084F8210000BF002084F8FD
:10098000200000BF606B10B12046616B884728468D
:1009900070BD0000800002400804024070B50446AB
:1009A000E06B05682068066894F8401004208840D1
:1009B0002840002875D006F004000028FAD02068EE
:1009C000006800F0200028B92068006820F00400CA
:1009D00021680860D5492068884254D9D3497839BC
:1009E0002068884201D1042049E0D0496439206858
:1009F000884201D1402042E0CC49503920688842E9
:100A000001D100153BE0C9493C392068884202D138
:100A10004FF4804033E0C54928392068884202D12C
:100A20004FF480202BE0C14914392068884202D15C
:100A30004FF4800023E0BD492068884201D1C00402
:100A40001DE0BB492068884201D1042017E0B84965
:100A500014312068884201D1402010E0B449283187
:100A60002068884201D1001509E0B1493C31206875
:100A7000884202D14FF4804001E04FF48020AC491D
:100A8000091F086054E0A94978392068884201D1DB
:100A900004204AE0A54964392068884202D14020F8
:100AA00043E04CE0A14950392068884201D100154B
:100AB0003BE09E493C392068884202D14FF4804097
:100AC00033E09A4928392068884202D14FF48020C7
:100AD0002BE0964914392068884202D14FF48000F7
:100AE00023E092492068884201D1C0041DE090496A
:100AF0002068884201D1042017E08D491431206814
:100B0000884201D1402010E089492831206888427C
:100B100001D1001509E086493C312068884202D1A4
:100B20004FF4804001E04FF48020804980394860D4
:100B3000E06A002802D02046E16A8847F4E094F891
:100B40004010022088402840002871D006F00200A2
:100B50000028FAD02068006800F0200040B9206822
:100B6000006820F00A0021680860012084F8210054
:100B70006E492068884254D96C4978392068884287
:100B800001D1022049E0694964392068884201D1D5
:100B9000202042E0654950392068884201D1401543
:100BA0003BE062493C392068884202D14FF4005052
:100BB00033E05E4928392068884202D14FF4003082
:100BC0002BE05A4914392068884202D14FF40010B2
:100BD00023E056492068884201D180041DE0544931
:100BE0002068884201D1022017E051491431206861
:100BF000884201D1202010E04D49283120688842E8
:100C000001D1401509E04A493C312068884202D1AF
:100C10004FF4005001E04FF400304549091F0860CF
:100C200054E0424978392068884202D102204AE0E3
:100C300057E03E4964392068884201D1202042E0D3
:100C40003A4950392068884201D140153BE0374984
:100C50003C392068884202D14FF4005033E03349D8
:100C600028392068884202D14FF400302BE02F4908
:100C700014392068884202D14FF4001023E02B4938
:100C80002068884201D180041DE0294920688842FB
:100C900001D1022017E0264914312068884201D191
:100CA000202010E0224928312068884201D14015D7
:100CB00009E01F493C312068884202D14FF40050BE
:100CC00001E04FF4003019498039486000BF00202E
:100CD00084F8200000BFA06A30B32046A16A88478C
:100CE00022E094F84010082088402840E0B106F047
:100CF0000800C8B12068006820F00E002168086074
:100D000094F8401001208840E16B48600120A06306
:100D100084F8210000BF002084F8200000BF206B71
:100D200010B12046216B884770BD00008000024052
:100D3000080402400146002209B9012070471E4BF9
:100D4000086898420BD21D4B0868C01A1423B0FBE8
:100D5000F3F08000086419480838C8630AE0164BAD
:100D60000868C01A1423B0FBF3F08000086412482E
:100D70000838C863022081F821000868026843F639
:100D8000F0708243D1E901031843CB6818430B6923
:100D900018434B6918438B691843CB6918430243C6
:100DA0000868026000208863012081F8210000208B
:100DB00081F8200000BFC1E708040240080002409B
:100DC0002DE9F04104460D4616461F464FF0000837
:100DD00000BF94F82000012802D10220BDE8F08174
:100DE000012084F8200000BF94F8210001282CD1B4
:100DF000022084F821000020A0632068006820F011
:100E00000100216808603B46324629462046FFF72C
:100E1000AFFCE06A30B12068006840F00E00216845
:100E200008600BE02068006820F00400216808607A
:100E30002068006840F00A002168086020680068A7
:100E400040F001002168086006E000BF002084F83F
:100E5000200000BF4FF002084046BFE710B504462F
:100E6000A0B201F0ABFB10BD2DE9F847024600230C
:100E70009C467BE14FF0010808FA03F4D1F80080AA
:100E800008EA0400A0427DD1DFF8F4A2D1F8048082
:100E9000A8EB0A09D0453AD014DCB8F1030F50D0C2
:100EA00009DCB8F1000F31D0B8F1010F1CD0B8F156
:100EB000020F49D120E0B8F1110F18D0B8F1120F8C
:100EC00042D11EE0B9F5881F25D006DCB9F5803F78
:100ED00020D0B9F5801F37D11AE0B9F5001F18D01E
:100EE000B9F5041F30D117E0D1F80CC02DE0D1F8CE
:100EF0000C8008F1040C28E0D1F80C8008F1080CF3
:100F000023E0D1F80C8008F10C0C1EE000BF00BFFC
:100F100000BF00BF00BF00BFD1F80880B8F1000FCC
:100F200002D14FF0040C0BE0D1F80880B8F1010FAA
:100F300003D14FF0080C146102E04FF0080C54612B
:100F400003E04FF0000C00E000BF00BFFF2801D815
:100F5000904601E002F104084646FF2802D84FEA15
:100F6000830803E0A3F108084FEA88084746D6F84B
:100F700000804FF00F0909FA07F928EA09080CFA6E
:100F800007F900E07AE048EA0908C6F80080D1F8DD
:100F9000048008F08058B8F1805F6FD100BFDFF89F
:100FA000E481D8F8188048F00108DFF8D891C9F832
:100FB0001880C846D8F8188008F00108CDF80080DD
:100FC00000BF00BF4FEAB9384FEA930958F82950DB
:100FD0004FEA83784FEA18794FF00F0808FA09F8BA
:100FE00025EA0805DFF8A081424502D14FF000084C
:100FF00024E0DFF89881424502D14FF001081DE05E
:10100000DFF88C81424502D14FF0020816E0DFF88C
:101010008481424502D14FF003080FE0DFF8788168
:10102000424502D14FF0040808E0DFF870814245E4
:1010300002D14FF0050801E04FF006084FEA83792E
:101040004FEA197908FA09F848EA0505DFF85081EE
:101050004FEA930948F82950D1F8048008F4803801
:10106000B8F5803F0BD1DFF83C81D8F8008048EA22
:101070000008DFF83091C9F800800AE075E0DFF879
:101080002481D8F8008028EA0008DFF81891C9F810
:101090000080D1F8048008F40038B8F5003F0ED184
:1010A000DFF8008108F10408D8F8008048EA000859
:1010B000DFF8F09009F10409C9F800800DE0DFF8CD
:1010C000E48008F10408D8F8008028EA0008DFF876
:1010D000D49009F10409C9F80080D1F8048008F41B
:1010E0008018B8F5801F0ED1DFF8B88008F1080825
:1010F000D8F8008048EA0008DFF8A89009F108094C
:10110000C9F800800DE0DFF89C8008F10808D8F8E5
:10111000008028EA0008DFF88C9009F10809C9F876
:101120000080D1F8048008F40018B8F5001F0ED133
:10113000DFF8708008F10C08D8F8008048EA000851
:10114000DFF8609009F10C09C9F800800DE0DFF8C4
:10115000548008F10C08D8F8008028EA0008DFF86D
:10116000449009F10C09C9F800805B1CD1F800809B
:1011700028FA03F8B8F1000F7FF47CAEBDE8F887D9
:10118000000011100010024000080140000C014056
:10119000001001400014014000180140001C0140F3
:1011A0000800014000040140024693680B400BB167
:1011B000012000E0002070470AB1016101E00B044A
:1011C0000361704701480068704700001400002068
:1011D00003480068034909780844014908607047DA
:1011E000140000201C00002010B50848006840F0E2
:1011F000100006490860052000F080F80F2000F07C
:1012000007F800F02BF8002010BD0000002002407D
:1012100070B504460E4800784FF47A71B1FBF0F0D7
:101220000C490968B1FBF0F5284600F0E7FB08B16E
:10123000012070BD102C07D200222146501E00F064
:101240001EF80548046001E00120F2E70020F0E705
:101250001C000020040000201800002070470146F8
:101260000846002809DB00F01F0301229A404309C9
:101270009B0003F1E023C3F8002100BF70472DE974
:10128000F05F80460D461646002701F06BF90746D1
:1012900039462A46334601F00700C0F1070ABAF181
:1012A000040F02D94FF0040A01E0C0F1070AD14649
:1012B00000F1040ABAF1070F02D24FF0000A01E070
:1012C000A0F1030AD4464FF0010A0AFA09FAAAF17A
:1012D000010A0AEA020A0AFA0CFA4FF0010B0BFAA9
:1012E0000CFBABF1010B0BEA030B4AEA0B042146A2
:1012F000404601F03FF9BDE8F09F000000BF00F05C
:101300000702064B19684FF6FF031940044B0B43C5
:1013100043EA0221014B196000BF70470CED00E069
:101320000000FA0570B504460D460CB9012070BDE9
:101330005A48006800F00700A8420ED257480068DB
:1013400020F007002843554908600846006800F06F
:101350000700A84201D00120E9E7207800F0020050
:1013600002281DD1207800F00400042805D14C4843
:10137000406840F4E0604A494860207800F0080086
:10138000082805D14648406840F460504449486008
:101390004348406820F0F000A16808434049486095
:1013A000207800F0010078B36068012806D13C483D
:1013B000006800F4003090B90120B8E760680228A6
:1013C00006D13748006800F0007040B90120AEE750
:1013D0003348006800F0020008B90120A7E7304850
:1013E000406820F00300616808432D494860FFF71A
:1013F000E9FE064609E0FFF7E5FE801B41F2883171
:10140000884202D9032092E707E02548406800F0AF
:101410000C006168B0EB810FEDD12048006800F04E
:101420000700A8420ED91D48006820F00700284395
:101430001A4908600846006800F00700A84201D079
:10144000012074E7207800F00400042807D1144834
:10145000406820F4E060E168084311494860207862
:1014600000F00800082808D10D48406820F46050BA
:10147000216940EAC1000A49486000F03FF8084984
:101480004968C1F30311074A515CC8400649086026
:1014900006480068FFF7BCFE002048E70020024035
:1014A00000100240622800080400002018000020FC
:1014B00001480068704700000400002000B5FFF7F5
:1014C000F7FF04494968C1F30221034A515CC8404F
:1014D00000BD0000001002407228000800B5FFF7B0
:1014E000E7FF04494968C1F3C221034A515CC8407F
:1014F00000BD00000010024072280008F0B585B061
:101500000FF26C0C9CE8E01001A8A0E8E0101CA50C
:101510002D68009500210022002300240020194D91
:10152000696801F00C05F5B1042D02D0082D19D120
:1015300001E0154819E001ADC1F38346AC5D01F44B
:10154000803555B10F4D6D68C5F340451DF8052038
:101550000D4D6543B5FBF2F302E00C4D04FB05F3C2
:10156000184602E000BF084800BF00BF05B0F0BD4C
:1015700002030405060708090A0B0C0D0E0F1010D4
:10158000010200000010024000127A0000093D0034
:10159000F8B504460CB90120F8BD207800F0010030
:1015A000002878D0F848406800F00C0004280CD0DF
:1015B000F548406800F00C00082811D1F248406856
:1015C00000F48030B0F5803F0AD1EF48006800F4A5
:1015D000003000285FD0606800285CD10120DBE784
:1015E00000BF6068B0F5803F06D1E748006840F46E
:1015F0008030E549086028E0606858B9E248006832
:1016000020F48030E04908600846006820F480201B
:1016100008601AE06068B0F5A02F0BD1DA480068C6
:1016200040F48020D84908600846006840F48030C3
:1016300008600AE0D448006820F48030D24908608D
:101640000846006820F48020086000BF606888B108
:10165000FFF7B8FD054606E0FFF7B4FD401B642820
:1016600001D9032098E7C848006800F4003000283A
:10167000F2D010E0FFF7A6FD054606E0FFF7A2FD59
:10168000401B642801D9032086E7BF48006800F4A6
:1016900000300028F2D1207800F00200022857D153
:1016A000B948406800F00C0050B1B748406800F0FD
:1016B0000C00082818D1B448406800F4803098B96C
:1016C000B148006800F0020020B12069012801D073
:1016D000012061E7AC48006820F0F800616940EA49
:1016E000C100A949086033E02069E8B10120A74999
:1016F0000860FFF767FD054606E0FFF763FD401B46
:10170000022801D9032047E79F48006800F0020043
:101710000028F2D09C48006820F0F800616940EA97
:10172000C1009949086013E0002098490860FFF75C
:1017300049FD054606E0FFF745FD401B022801D99B
:10174000032029E79048006800F002000028F2D149
:10175000207800F0080008282DD1A069B8B1012038
:101760008B490860FFF72EFD054606E0FFF72AFDCE
:10177000401B022801D903200EE78348406A00F08D
:1017800002000028F2D0012000F00CFC13E0002041
:101790007F490860FFF716FD054606E0FFF712FDDA
:1017A000401B022801D90320F6E67748406A00F082
:1017B00002000028F2D1207800F00400042873D140
:1017C00000277148C06900F0805070B900BF6E48B2
:1017D000C06940F080506C49C8610846C06900F09B
:1017E0008050009000BF00BF01276A48006800F4E5
:1017F0008070B0B96748006840F48070654908603F
:10180000FFF7E0FC054606E0FFF7DCFC401B642820
:1018100001D90320C0E65F48006800F4807000280A
:10182000F2D000BFE068012806D15748006A40F0B6
:1018300001005549086227E0E06858B95248006A3B
:1018400020F00100504908620846006A20F00400B8
:10185000086219E0E06805280BD14B48006A40F0A7
:101860000400494908620846006A40F00100086225
:101870000AE04548006A20F0010043490862084632
:10188000006A20F00400086200BFE068A0B1FFF722
:1018900099FC054609E0FFF795FC401B41F28831B1
:1018A000884202D9032077E622E03748006A00F038
:1018B00002000028EFD012E0FFF784FC054608E0A4
:1018C000FFF780FC401B41F28831884201D9032098
:1018D00062E62D48006A00F002000028F0D1012FD6
:1018E00005D12948C06920F080502749C86100BF50
:1018F000E069C8B32448406800F00C00082860D0B4
:10190000E069022848D1002020490866FFF75AFC08
:10191000054606E0FFF756FC401B022801D90320CC
:101920003AE61948006800F000700028F2D1206AF9
:10193000B0F5803F07D11448406820F40030A1681A
:10194000084311494860D4E9080108430E49496831
:1019500021F4741108430C49486001200B490866C2
:10196000FFF730FC054607E03DE0FFF72BFC401B8E
:10197000022801D903200FE60348006800F0007038
:101980000028F2D02FE00000001002400000424288
:101990008004424200700040002014490866FFF7AE
:1019A00011FC054606E0FFF70DFC401B022801D99B
:1019B0000320F1E50E48006800F000700028F2D125
:1019C00011E0E069012800D1E6E50948466806F41F
:1019D0008031206A814204D106F47011606A81422C
:1019E00001D00120D8E50020D6E5000000004242E9
:1019F0000010024010B500F013FA10BD70B5044697
:101A00002546681EB0F1807F01D301200FE0681EDB
:101A10004FF0E02148610F214FF0FF3000F0AAFDA8
:101A200000204FF0E021886107200861002070BD90
:101A300010B5FFF7DFFF10BD70B504460025206824
:101A40004069C0F3C01594F8390021280ED16DB15A
:101A50002068406920F0800021684861206B10B147
:101A6000206BFEF79CFE204600F034FB20684069A6
:101A7000C0F3801594F83A0022280ED16DB1206889
:101A8000406920F0400021684861606B10B1606BD4
:101A9000FEF785FE204600F0FDFA002070BD70477D
:101AA0002DE9F0470446206805682068C66820686C
:101AB00047694FF00008C14605F00F08B8F1000F64
:101AC0000AD105F0200038B106F0200020B12046F0
:101AD00000F00AFBBDE8F087B8F1000F71D007F005
:101AE000010018B906F4907000286AD005F00100D2
:101AF00030B106F4807018B1E06B40F00100E06393
:101B000005F0040030B107F0010018B1E06B40F0BF
:101B10000200E06305F0020030B107F0010018B1E7
:101B2000E06B40F00400E06305F0080048B106F007
:101B3000200010B907F0010018B1E06B40F0080078
:101B4000E063E06B68B305F0200028B106F02000E8
:101B500010B1204600F0C8FA20684069C0F380192F
:101B6000E06B00F0080010B9B9F1000F22D0204658
:101B700000F090FA2068406900F04000B0B12068A1
:101B8000406920F0400021684861606B50B11848FE
:101B9000616B4863606BFEF72DFE10B1606B416BAB
:101BA00088470CE02046FFF77AFF08E02046FFF761
:101BB00076FF04E02046FFF772FF0020E06389E72C
:101BC000FFE705F0800030B106F0800018B1204634
:101BD00000F058FB7EE705F0400030B106F0400011
:101BE00018B1204600F066FA74E700BF72E7000003
:101BF000DD1F000810B504460CB9012010BDA06916
:101C000000B100E000BF94F8390028B9002084F842
:101C10003800204600F027F8242084F83900206896
:101C2000C06820F400502168C860204600F0ACFA7B
:101C30002068006920F490402168086120684069AC
:101C400020F02A00216848612068C06840F40050F4
:101C50002168C8600020E063202084F8390084F8FF
:101C60003A000020CAE7704777B581B004461546B0
:101C700094F83A00202850D1029800B115B90120FB
:101C800004B070BD00BF94F83800012801D10220D3
:101C9000F6E7012084F8380000BF0298A062A5850D
:101CA0000020E063222084F83A001D48616B8862BE
:101CB0001C48616BC8621C48616B08630020616B43
:101CC000486302AE32682368191D2B46606BFFF72C
:101CD00077F800BF0020009020680068009020681E
:101CE0004068009000BF00BF00BF002084F83800AB
:101CF00000BF2068C06840F480702168C860206818
:101D0000406940F00100216848612068406940F066
:101D10004000216848610020B2E70220B0E70000DF
:101D20004120000887200008F11F00087047704715
:101D30002DE9F84F04460E46174699464FF0000A23
:101D400094F8390020285AD106B117B90120BDE80E
:101D5000F88F00BF94F83800012801D10220F6E77F
:101D6000012084F8380000BF0020E063212084F8BF
:101D70003900FFF727FA8246A784E784A068B0F508
:101D8000805F04D1206910B90025B04602E03546D5
:101D90004FF0000800BF002084F8380000BF1BE0AF
:101DA0005346002280212046CDF8009000F09AFA98
:101DB00008B10320CBE745B9B8F80000C0F308002C
:101DC0002168486008F1020803E02878216848602B
:101DD0006D1CE08C401EE084E08C0028E0D153466E
:101DE000002240212046CDF8009000F07BFA08B197
:101DF0000320ACE7202084F839000020A7E7022068
:101E0000A5E7704700BFFEE710B510210348FFF7B4
:101E1000CBF908B9012010BD0020FCE700180140F3
:101E200010B52648007830B101280ED0022822D003
:101E3000032841D136E0FFF7E7FF28B101201F4911
:101E4000087000201E49088036E0FFF7DDFF70B102
:101E50001B480088401C80B219490880142809DBFF
:101E600002201649087000201549088002E0002071
:101E70001249087020E0FFF7C7FF30B9012011496F
:101E8000087000200D4908700BE00D480088401CC8
:101E900080B20B490880B0F57A7F02DB0320074946
:101EA000087009E0FFF7B0FF28B901200649087063
:101EB00000200249087000BF00BF10BD30000020A4
:101EC00032000020340000203500002000BFFEE773
:101ED00070472DE9F047C4B004460D460A2D03DAD9
:101EE000002044B0BDE8F08720785A2802D16078FD
:101EF000A52801D00020F4E7A078E17840EA012A83
:101F00002079617940EA0126AE4201D00020E8E75D
:101F1000A81E205C692803D1681E205C692801D0B6
:101F20000020DEE7281F215CE81E205C41EA002734
:101F3000281F81B22046FEF7F6FB8046B84501D047
:101F40000020CEE74FF4867101A8FEF7A6FA2078AC
:101F50008DF8040060788DF80500ADF806A0ADF8A6
:101F60000860A6F10A001FFA80F9B9F5807F01D94F
:101F70004FF480794A46A11D0DF10A00FEF748FA98
:101F8000ADF80A71A81E205C8DF80C01681E215C5A
:101F90008DF80D11BDF8081001A800F03DFB0120DF
:101FA0009FE7704708B508490968C9084FF47A7275
:101FB000B1FBF2F14143009100BF00BF00994A1EFE
:101FC00000920029F9D108BD04000020704710B527
:101FD000FFF7FEF8FFF72CFD10BD704770B5054602
:101FE0006C6A0020E085E0842046FFF758FD70BD54
:101FF00070B506460025746A20684069C0F3C015B4
:1020000094F83900212805D125B10020E08420462C
:1020100000F060F820684069C0F3801594F83A0039
:10202000222805D125B10020E085204600F032F8B5
:10203000E06B40F01000E0632046FFF730FD70BD1C
:1020400070B505466C6A2868006800F02000B0B9D9
:102050000020E0852068C06820F480702168C86096
:102060002068406920F001002168486120684069CB
:1020700020F0400021684861202084F83A00204682
:10208000FFF754FE70BD70B50446656A2846FFF739
:102090004EFE70BD0168C96821F490710268D1607C
:1020A0000168496921F0010102685161202180F82D
:1020B0003A10704710B504462068C06820F0400010
:1020C0002168C860202084F839002046FFF799FE77
:1020D000002010BD0168C96821F0C0010268D1600C
:1020E000202180F83910704770B5044694F83A0002
:1020F000222847D1A068B0F5805F0CD1206950B983
:102100000025A66A20684068C0F308003080A06AF5
:10211000801CA06215E0A56A0026A068B0F5805F6B
:1021200003D0A06828B9206918B9206840682870D1
:1021300004E02068406800F07F002870A06A401C1E
:10214000A062E08D401E80B2E085C8B92068C068FA
:1021500020F020002168C8602068C06820F48070EA
:102160002168C8602068406920F00100216848614A
:10217000202084F83A002046FFF7D8FD002070BDEB
:102180000020FCE70220FAE770B5044621680969DF
:1021900021F44051E2681143226811612269A1686B
:1021A0001143626941EA02052168C96841F20C6283
:1021B000914329432268D1602168496921F4407123
:1021C000A2691143226851612D4A2168914202D1CE
:1021D000FFF784F901E0FFF771F900EBC00101EBB3
:1021E000001162689200B1FBF2F100EBC00202EB59
:1021F000001263689B00B2FBF3F26423B2FBF3F2BC
:1022000002EBC20303EB0212A1EB8201322202EBCA
:1022100001116422B1FBF2F101F0F00100EBC00208
:1022200002EB001263689B00B2FBF3F26423B2FB83
:10223000F3F201EB021200EBC00101EB0011636845
:102240009B00B1FBF3F100EBC00303EB00136668E6
:10225000B600B3FBF6F36426B3FBF6F303EBC30659
:1022600006EB0313A1EB8301322303EB011164237B
:10227000B1FBF3F101F00F0111442268916070BDD0
:1022800000380140014691F83900212828D188689A
:10229000B0F5805F0BD1086948B90A6A1088C0F3AD
:1022A00008000B685860086A801C086205E00B6A29
:1022B000581C086218780B685860C88C401E80B2A1
:1022C000C88458B90868C06820F080000B68D860DE
:1022D0000868C06840F040000B68D8600020704774
:1022E0000220FCE72DE9F04104460D4617469846CA
:1022F000069E21E0701CF8B12EB1FEF763FFA0EB43
:102300000800B04218D92068C06820F4D070216855
:10231000C8602068406920F00100216848612020E1
:1023200084F8390084F83A0000BF002084F83800AF
:1023300000BF0320BDE8F081206800682840A84263
:1023400001D1012000E00020B842D3D00020F1E705
:1023500000BFFEE708B51D480068006800F01000E7
:1023600010282ED100BF0020009018480068006897
:102370000090164800684068009000BF00BF1348F6
:10238000FFF75AFB124800684068C0F58070114999
:1023900008804FF0FF33084602880F490B48FFF7CB
:1023A000C7FC0C4801880C48FFF793FD4FF480717F
:1023B0000948FEF772F84FF4807207490348FFF7A7
:1023C00053FC0248FFF76CFB08BD000038020020F8
:1023D00078020020100000203801002000B585B0F0
:1023E00000BF4C48806940F480404A4988610846F3
:1023F000806900F48040009000BF00BF00BF084625
:10240000806940F0040088610846806900F004009B
:10241000009000BF00BF00BF0846406940F00100C7
:1024200048610846406900F00100009000BF00BF0D
:102430000020019002900390049048150190022022
:1024400002900320049001A93348FEF70DFD4FF4DC
:102450008060019000200290039001A92E48FEF7B1
:1024600003FD2E482E4908600020486000212C48BA
:1024700081608021C1600021016141612021816171
:102480000902C161FEF756FC08B1FFF761FF00BF0A
:1024900023482449486308462149486200BF22482E
:1024A000204908604FF4E130486000211D488160F8
:1024B000C16001610C21416100218161C161FFF7AF
:1024C00099FB10B119A0FDF7A7FE16480068C06877
:1024D00040F0100013490968C86000221146252009
:1024E000FEF7CDFE2520FEF7BAFE002201210F20C7
:1024F000FEF7C5FE0F20FEF7B2FE4FF480721049C2
:102500000848FFF7B1FB10B10EA0FDF785FE05B03E
:1025100000BD0000001002400008014058000240C9
:102520007802002038020020003801407561727482
:102530005F696E6974206661696C65640A000000F9
:102540003801002075617274207265636569766573
:1025500020646D61206661696C65640A000000009A
:1025600000BFFEE702480068C0F302207047000089
:102570000CED00E010B5002804DB0A07130E054A35
:10258000135406E00A07140E034A00F00F031B1F42
:10259000D45410BD00E400E018ED00E030380A2803
:1025A00001D2012070470020704700BF7047000033
:1025B00001490860704700000800002010B504467B
:1025C0004FF47A7104FB01F000F002F810BD000036
:1025D00070B5034600224FF0E02675690D4E36684F
:1025E00003FB06F44FF0E026B16910E04FF0E0265F
:1025F000B06988420BD0884202D20E1A324402E0FF
:102600002E1A0E4432440146A24200D300E0EDE708
:1026100000BF70BD0800002070B505460E460024BE
:102620000FE00A4830F834006988884207D107482B
:1026300000EBC400314642682846904703E0601C26
:10264000C4B2002CEDD000BF002070BD7C28000873
:1026500000BF054A126802F04002002AF9D0C2B257
:10266000014B1B1D1A6070470038014000B585B052
:1026700000BF00BF1E48806940F008001C49886107
:102680000846806900F00800009000BF00BF00BF4E
:1026900000BF00BF0846806940F0400088610846DE
:1026A000806900F04000009000BF00BF00BF202004
:1026B00001900120029003900320049001A90D488D
:1026C000FEF7D2FB2020019001A90B48FEF7CCFBBE
:1026D00000BF012220210748FEF76EFD00BF00BFAA
:1026E000012220210448FEF767FD00BF05B000BDB0
:1026F00000100240000C01400018014010B50446D3
:10270000022C09D2054A02EBC4029188034A52F80E
:1027100034000122FEF750FD10BD00002000002013
:1027200010B50446022C09D2054A02EBC402918876
:10273000034A52F834000022FEF73EFD10BD0000AF
:10274000200000200025FEF74FFD4FF4E01000F0C0
:1027500055F84820FFF72CFFFFF740FEFFF786FFF4
:10276000124B012212490020FDF7AEFFC5B2002432
:1027700010A0FDF751FD00BF06E00C48015D0FA061
:10278000FDF74AFD601C84B2AC42F6DB0DA0FDF7FC
:1027900043FD0020FFF7B2FF0120FFF7AFFF03E08A
:1027A0004FF4FA70FEF75AFBFAE7000038000020F9
:1027B0000000002074785F6275663A002530327838
:1027C000200000000A0000002DE9F041054688467F
:1027D00000260027AE7900240BE00120A040304005
:1027E00018B1E0B2FFF79CFF02E0E0B2FFF786FF0E
:1027F000641C082CF1DB0020BDE8F08130B58FB0FF
:1028000005460124282105A8FDF747FE1421684646
:10281000FDF743FE0120059000040690002007907C
:1028200002200C90C1030D910E9505A8FEF7B0FE95
:1028300004460CB100BFFEE70F200090022001907B
:10284000002002904FF48060039000200490022149
:102850006846FEF767FD04460CB100BFFEE70FB007
:1028600030BD000000000000000001020304060764
:10287000080900000000010203040000000000003D
:10288000C9270008303132333435363738394142C0
:1028900043444546403058003031323334353637C2
:1028A000383961626364656640307800040000086E
:1028B0000000000000000002000100001000000005
:1028C000E028000800000020380000006C0100082B
:1028D0001829000838000020E808000088010008D6
:1028E000030000000024F4000000000000000000CD
:1028F00000000000000000001000000001000000C7
:10290000000C0140200000000018014020000000E1
:082910000000000000000000BF
:0400000508000131BD
:00000001FF
